:100000000C94AA0D0C94D40D0C94D40D0C94D40D16
:100010000C94D40D0C94D40D0C94D40D0C94D40DDC
:100020000C94D40D0C94D40D0C949C8E0C94198FBC
:100030000C94D40D0C94D40D0C94D40D0C94D40DBC
:100040000C94D40D0C94CA6E0C94D40D0C94D40D55
:100050000C94D40D0C94D40D0C94A07E0C94FB8DB8
:100060000C94D40D0C94D40D0C94D40D0C94D40D8C
:100070000C94D40D0C94D40D0C94D40D0C94D40D7C
:100080000C94D40D0C94D40D0C94D40D0C94D40D6C
:100090000C944C860C94D40D8A8BB68BD88BD88B51
:1000A000D88BD88BD88BD88BD88BD88BD88BD88B38
:1000B000D88BD88BCE8BC68BBE8BD88BD88BD88B5E
:1000C000D88BD88BD88BD88BB08B968B9E8BA88BEC
:1000D000084AD73B3BCE016E84BCBFFDC12F3D6CAF
:1000E00074319ABD56833DDA3D00C77F11BED9E415
:1000F000BB4C3E916BAAAABE000000803F05A84CF5
:10010000CDB2D44EB93836A9020C50B991868808C0
:100110003CA6AAAA2ABE000000803F002020506C06
:10012000616E6E657242756666657242797465735A
:100130003A20002046726565204D656D6F72793AF0
:100140002000436F6D70696C65643A2044656320DC
:10015000203820323031370A00207C204175746805
:100160006F723A2028526F6265727420436C617915
:100170002C205072696E7472626F7420584C290A78
:1001800000323031372D31302D31302031323A309C
:100190003000204C61737420557064617465643A5A
:1001A0002000312E312E360A004D61726C696E00CE
:1001B00020536F6674776172652052657365740AA7
:1001C00000205761746368646F67205265736574BB
:1001D0000A002042726F776E206F7574205265732B
:1001E00065740A002045787465726E616C205265F2
:1001F0007365740A00506F77657255700A007374E6
:100200006172740A005072696E7465722068616C64
:100210007465642E206B696C6C28292063616C6C9A
:100220006564210A004B494C4C45442E20004B4943
:100230004C4C2063617573656420627920746F6F24
:10024000206D75636820696E6163746976652074DA
:10025000696D65202D2063757272656E7420636F01
:100260006D6D616E643A200020746F6F206C6F6E4C
:100270006720657874727573696F6E207072657629
:10028000656E7465640A0020636F6C642065787421
:10029000727573696F6E2070726576656E746564D1
:1002A0000A006F6B00526573656E643A20004E6FF2
:1002B0002063617365206C696768740A003A2000E6
:1002C0007A5F6D696E3A20202D3230207A5F6D6141
:1002D000783A20203230005A204F666673657420C9
:1002E00000546F6F206661722066726F6D207265B8
:1002F000666572656E636520706F696E740A004290
:100300006564204C6576656C696E6720004661699E
:100310006C656420746F20656E61626C6520426557
:1003200064204C6576656C696E670A0042656420DE
:100330004C6576656C20436F7272656374696F6E8D
:10034000204D61747269783A0043290A0061626C39
:10035000656420286D696E2074656D702000436FA0
:100360006C642065787472756465732061726520B1
:100370000020643A0020693A0020703A00205A00B8
:10038000205900580020204D61783A2000205A0062
:10039000205900580020204D696E3A20004F6666B3
:1003A000004F6E2000536F667420656E6473746F27
:1003B00070733A200053657474696E6720547261DB
:1003C00076656C20416363656C65726174696F6EFC
:1003D0003A200053657474696E67205265747261C7
:1003E000637420416363656C65726174696F6E3A12
:1003F000200053657474696E67205072696E7420B2
:10040000416363656C65726174696F6E3A20005375
:10041000657474696E67205072696E7420616E64D1
:100420002054726176656C20416363656C6572610E
:1004300074696F6E3A20002F2F20004361703A4597
:100440004D455247454E43595F5041525345523AEC
:10045000300A004361703A434153455F4C49474875
:10046000545F4252494748544E4553533A300A006C
:100470004361703A544F47474C455F4C4947485495
:10048000533A300A004361703A534F465457415231
:10049000455F504F5745523A300A004361703A4C1D
:1004A0004556454C494E475F444154413A310A0054
:1004B0004361703A5A5F50524F42453A310A004305
:1004C00061703A4155544F4C4556454C3A310A00FB
:1004D0004361703A5052494E545F4A4F423A310A92
:1004E000004361703A50524F47524553533A300AD5
:1004F000004361703A4155544F5245504F52545F3A
:1005000054454D503A310A004361703A45455052C6
:100510004F4D3A310A004649524D574152455F4EC0
:10052000414D453A4D61726C696E20312E312E3647
:1005300020284769746875622920534F55524345F6
:100540005F434F44455F55524C3A68747470733A38
:100550002F2F6769746875622E636F6D2F4D6172FE
:100560006C696E4669726D776172652F4D61726C50
:10057000696E2050524F544F434F4C5F5645525373
:10058000494F4E3A312E30204D414348494E455F48
:10059000545950453A3344205072696E7465722044
:1005A00045585452554445525F434F554E543A3185
:1005B00020555549443A63656465326132662D348D
:1005C0003161322D343734382D396231322D633573
:1005D000356336326633363766660A0020573A008E
:1005E00020573A006F6B004D3131332053004B4997
:1005F0004C4C45442E20004543484F00494E464F41
:10060000004552524F52530044525952554E0043E6
:100610004F4D4D554E49434154494F4E006F66660C
:1006200000F705FC05010608060F0644454255473C
:100630003A0000011C1D132FFF1E1F12FF1820215E
:100640001124FFFFFF0E10FFFFFF22230DFFFF0EFF
:10065000260FFF27FFFFFFFFFFFF50726F746563D8
:100660007465642050696E0A002569730025696D00
:1006700020256973002569682025696D2025697327
:1006800000256964202569682025696D2025697326
:100690000025697920256964202569682025696D10
:1006A00020256973005072696E742074696D653A13
:1006B0002000205A3A200020593A20004265642048
:1006C000583A20000A0A426564204C6576656C2021
:1006D000436F7272656374696F6E204D61747269E5
:1006E000783A0052756E6E696E6720696E204452CA
:1006F000592D52554E206D6F64650A0047323920DE
:100700004175746F20426564204C6576656C696E36
:10071000670A003F2856296572626F7365206C6511
:1007200076656C20697320696D706C6175736962A0
:100730006C652028302D34292E0A0047322F47338C
:100740002062616420706172616D65746572730A04
:1007500000416374697665204578747275646572CA
:100760003A200020453A00205A3A0020593A0058D1
:100770003A002042403A0020403A00202F005761C2
:10078000726E696E673A20486F6D696E67204275B8
:100790006D702044697669736F72203C20310A00C5
:1007A000020204627573793A207061757365642082
:1007B000666F7220696E7075740A00627573793A9B
:1007C0002070617573656420666F72207573657241
:1007D0000A00627573793A2070726F63657373698A
:1007E0006E670A0050726F62696E67206661696C9D
:1007F00065640A00205A3A200020593A20004265D8
:100800006420583A20002066697273740A005A0006
:1008100059005800486F6D65200020496E76616C64
:10082000696420657874727564657220004B494C68
:100830004C45442E20005072696E746572207374AA
:100840006F707065642064756520746F20657272C6
:100850006F72732E20466978207468652065727205
:100860006F7220616E6420757365204D39393920AF
:10087000746F20726573746172742E202854656DD4
:100880007065726174757265206973207265736535
:10089000742E20536574206974206166746572201B
:1008A00072657374617274696E67290A004E6F20F5
:1008B0004C696E65204E756D62657220776974684B
:1008C00020636865636B73756D2C204C61737420B5
:1008D0004C696E653A20004E6F20436865636B7308
:1008E000756D2077697468206C696E65206E756D12
:1008F0006265722C204C617374204C696E653A20DD
:1009000000636865636B73756D206D69736D6174E9
:1009100063682C204C617374204C696E653A20002A
:100920004C696E65204E756D626572206973206E2C
:100930006F74204C617374204C696E65204E756D28
:100940006265722B312C204C617374204C696E658A
:100950003A20004D31313000656E717565756569FD
:100960006E67202200FF01FF0000A0400000A040B1
:100970000000004033334B4333334B4300004843C4
:100980000000000033334B430000000033334B437F
:1009900033334B43000048430000000000000000D8
:1009A0000000000000004842000048420000804073
:1009B0000000000020204D383531205A005A2D50BB
:1009C000726F6265204F666673657420286D6D29AD
:1009D0003A0A0020440020490020204D33303120C5
:1009E00050005049442073657474696E67733A0A05
:1009F0000020204D3432302053004175746F204266
:100A00006564204C6576656C696E673A0A00205A09
:100A10000020590020204D323036205800486F6D9C
:100A200065206F66667365743A0A00204500205A97
:100A30000020590020580020420020540020204D62
:100A4000323035205300416476616E6365643A202C
:100A5000533C6D696E5F66656564726174653E20C6
:100A6000543C6D696E5F74726176656C5F66656536
:100A700064726174653E20423C6D696E5F736567A8
:100A80006D656E745F74696D655F6D733E20583C73
:100A90006D61785F78795F6A65726B3E205A3C6D54
:100AA00061785F7A5F6A65726B3E20453C6D617864
:100AB0005F655F6A65726B3E0A0020540020520039
:100AC00020204D323034205000416363656C6572E4
:100AD0006174696F6E2028756E6974732F73322983
:100AE0003A20503C7072696E745F616363656C3E5E
:100AF00020523C726574726163745F616363656CFC
:100B00003E20543C74726176656C5F616363656C12
:100B10003E0A00204500205A0020590020204D3276
:100B200030312058004D6178696D756D20416363E7
:100B3000656C65726174696F6E2028756E69747377
:100B40002F7332293A0A00204500205A002059000C
:100B500020204D3230332058004D6178696D756D1D
:100B6000206665656472617465732028756E6974AA
:100B7000732F73293A0A00204500205A002059009B
:100B800020204D39322058005374657073207065F1
:100B90007220756E69743A0A0020204D3230302080
:100BA00044300A0020204D32303020440020446977
:100BB0007361626C65640A0046696C616D656E7490
:100BC0002073657474696E67733A00202047323170
:100BD000202020203B20556E69747320696E206DA3
:100BE0006D0A0048617264636F64656420446566E1
:100BF00061756C742053657474696E6773204C6FF3
:100C0000616465640A00D0070000D00700001E0080
:100C10000000102700000000FA420000FA42000025
:100C2000A0400000604166669D429A999D42000086
:100C3000FA4400000143202863616C63756C6174A1
:100C4000656429210A0020213D2000454550524F6E
:100C50004D20435243206D69736D61746368202D8C
:100C6000202873746F726564292000290A002062AD
:100C7000797465733B2063726320002073746F7214
:100C800065642073657474696E677320726574722D
:100C90006965766564202800204D61726C696E3D3F
:100CA000563431290A0028454550524F4D3D0045E4
:100CB0004550524F4D2076657273696F6E206D6995
:100CC000736D617463682000290A0020627974657D
:100CD000733B20637263200053657474696E67739D
:100CE0002053746F7265642028004572726F722001
:100CF00077726974696E6720746F20454550524F52
:100D00004D210A000000803F0000803F0000803F2E
:100D10000000803F0000803F0000803F0000803FD7
:100D20000000803F7A5F6D696E3A2000795F6D61E7
:100D3000783A2000785F6D696E3A20005265706FD6
:100D40007274696E6720656E6473746F702073745B
:100D5000617475730A00205A3A0020593A002058ED
:100D60003A00656E6473746F7073206869743A201A
:100D700000556E6B6E6F776E20636F6D6D616E6484
:100D80003A20220020746F6F206C6F6E67206578A8
:100D900074727573696F6E2070726576656E7465B6
:100DA000640A0020636F6C642065787472757369DF
:100DB0006F6E2070726576656E7465640A00656397
:100DC000686F3A004572726F723A00205A3A0020FA
:100DD000593A0020436F756E7420583A0024F4D4B9
:100DE0003050C38E20C2A24017828B7011127A91AC
:100DF0000D816CD90AA861E108C7586607615143A3
:100E0000061E4B5D05C145A7041A411104093D9812
:100E100003713931034036DB0265339102D430541B
:100E200002802E1D02632CEE01752AC501B028A098
:100E300001102781018F2564012B244B01E022340E
:100E400001AC211F018D200D01801FFC00841EEDCF
:100E500000971DDF00B81CD200E61BC600201BBC9B
:100E600000641AB200B219A8000A19A0006A189901
:100E700000D117910040178B00B516840031167E03
:100E800000B31579003A157300C7146F0058146A3F
:100E900000EE1366008813630025135E00C7125B23
:100EA000006C12570015125400C111510070114FFF
:100EB0000021114B00D61049008D10470046104408
:100EC0000002104200C00F4000800F3E00420F3C65
:100ED00000060F3B00CB0E3800930E37005C0E353A
:100EE00000270E3400F30D3200C10D3100900D309B
:100EF00000600D2E00320D2D00050D2C00D90C2B9D
:100F000000AE0C2900850C29005C0C2700350C274D
:100F1000000E0C2600E80B2400C40B2400A00B23B9
:100F2000007D0B23005A0B2100390B2100180B20E8
:100F300000F80A1F00D90A1E00BB0A1E009D0A1DE8
:100F400000800A1D00630A1C00470A1B002C0A1BB4
:100F500000110A1A00F7091A00DD091900C409195D
:100F600000AB091900920917007B091800630917E3
:100F7000004C09160036091600200916000A09154A
:100F800000F5081500E0081400CC081400B8081497
:100F900000A4081400900813007D0812006B0813C9
:100FA00000580812004608120034081100230811E6
:100FB000001208110001081100F0071000E00710EE
:100FC00000D0071000C0071000B0070F00A10710E5
:100FD0000091070E0083070F0074070F0065070ECE
:100FE0000057070E0049070E003B070D002E070EA5
:100FF0000020070D0013070D0006070D00F9060C71
:1010000000ED060D00E0060C00D4060C00C8060C2E
:1010100000BC060C00B0060C00A4060B0099060CE0
:10102000008D060B0082060B0077060B006C060B8A
:101030000061060A0057060B004C060A0042060A29
:101040000038060A002E060A0024060A001A060ABC
:10105000001006090007060A00FD050900F405094D
:1010600000EB050900E2050900D9050900D00509D2
:1010700000C7050900BE050900B5050800AD050853
:1010800000A50509009C050800940508008C0508CA
:1010900000840508007C050800740508006C05073D
:1010A00000650508005D050700560508004E0507A8
:1010B000004705070040050800380507003105070F
:1010C000002A050700230507001C05060016050772
:1010D000000F0507000805060002050700FB0406CF
:1010E00000F5040700EE040600E8040600E2040729
:1010F00000DB040600D5040600CF040600C9040680
:1011000000C3040600BD040600B7040600B10405D0
:1011100000AC040600A6040600A00405009B04061B
:101120000095040500900406008A04050085040566
:1011300000800406007A04050075040500700405AB
:10114000006B04050066040500610405005C0405ED
:101150000057040500520405004D0405004804052D
:1011600000430405003E0404003A0405003504056C
:1011700000300404002C04050027040400230405A7
:10118000001E0404001A04040016040500110404DF
:10119000000D040400090405000404040000040414
:1011A00000FC030400F8030400F4030400F003044B
:1011B00000EC030400E8030400E4030400E003047B
:1011C00000DC030400D8030400D4030400D00304AB
:1011D00000CC030400C8030300C503030024F40487
:1011E000D9201BC40C5C0E9804C4095F026507710A
:1011F00001F405F900FB04B30048048700C103694A
:10120000005803550003034500BE023A0084023132
:101210000053022A002902250004022000E4011CD8
:1012200000C8011900AF01170098011400840113D0
:1012300000710110006101100051010E0043010D09
:101240000036010B002B010B0020010B00150109DA
:10125000000C01090003010800FB000800F300086E
:1012600000EB000700E4000600DE000600D80006E0
:1012700000D2000600CC000500C7000500C2000532
:1012800000BD000400B9000400B5000400B1000472
:1012900000AD000400A9000400A5000300A20003A3
:1012A000009F0004009B00030098000300950002CB
:1012B0000093000300900003008D0002008B0003E8
:1012C0000088000200860002008400030081000202
:1012D000007F0002007D0002007B00020079000216
:1012E0000077000100760002007400020072000125
:1012F00000710002006F0002006D0001006C00022E
:10130000006A000100690002006700010066000138
:10131000006500010064000200620001006100013C
:1013200000600001005F0002005D0001005C000140
:10133000005B0001005A0001005900010058000143
:101340000057000100560001005500010054000143
:101350000053000000530001005200010051000141
:1013600000500001004F0001004E0000004E00013F
:10137000004D0001004C0001004B0000004B00013B
:10138000004A000100490001004800000048000137
:101390000047000100460000004600010045000033
:1013A000004500010044000100430000004300012B
:1013B0000042000000420001004100000041000125
:1013C00000400001003F0000003F0001003E00001F
:1013D000003E0001003D0000003D0001003C000017
:1013E000003C0000003C0001003B0000003B00010D
:1013F000003A0000003A0001003900000039000105
:1014000000380000003800000038000100370000FC
:1014100000370001003600000036000000360001F1
:1014200000350000003500000035000100340000E8
:1014300000340000003400010033000000330000DD
:1014400000330001003200000032000000320001D1
:1014500000310000003100000031000100300000C8
:101460000030000000300001002F0000002F0000BD
:10147000002F0000002F0001002E0000002E0000B1
:10148000002E0001002D0000002D0000002D0000A6
:10149000002D0001002C0000002C0000002C00009A
:1014A000002C0001002B0000002B0000002B00008E
:1014B000002B0001002A0000002A0000002A000082
:1014C000002A000100290000002900000029000076
:1014D0000029000000290001002800000028000069
:1014E000002800000028000000280001002700005C
:1014F000002700000027000000270000002700014F
:101500000026000000260000002600000026000043
:101510000026000100250000002500000025000035
:101520000025000000250000002500010024000027
:10153000002400000024000000240000002400011A
:10154000002300000023000000230000002300000F
:1015500000230000002300000023000100220000FF
:1015600000220000002200000022000000220000F3
:1015700000220001002100000021000000210000E5
:1015800000210000002100000021000000210001D6
:1015900000200000002000000020000000200000CB
:1015A00000200000002000000020000000200001BA
:1015B000001F0000001F0000001F0000001F0000AF
:1015C000001F0000001F0000001F0001001E00009F
:1015D000001E0000001E0000001E00000020280069
:1015E0002920453A0020280029205A3A00202800C6
:1015F0002920593A0020280020583A005374657079
:101600007065722063757272656E742076616C7598
:10161000657320696E20252028416D7073293A0A70
:1016200000546865726D616C2052756E61776179E6
:1016300000544845524D414C2052554E4157415956
:10164000004B494C4C45442E2000202D20496E76FD
:10165000616C6964206578747275646572206E755A
:101660006D62657220210A0048656174696E6720A9
:101670006661696C65640048656174696E672066BF
:1016800061696C65640048656174696E67206661B4
:10169000696C65640048656174696E67206661699C
:1016A0006C6564004D494E54454D50207472696715
:1016B0006765726564004572723A204D494E544523
:1016C0004D5020424544004572723A204D494E54D7
:1016D000454D50004D415854454D50207472696736
:1016E0006765726564004572723A204D41585445F1
:1016F0004D5020424544004572723A204D415854A5
:10170000454D50006265640A002C2073797374653E
:101710006D2073746F707065642120486561746515
:10172000725F49443A200023646566696E65202033
:1017300044454641554C545F4B6420002364656624
:10174000696E65202044454641554C545F4B6920E5
:101750000023646566696E65202044454641554C0A
:10176000545F4B702000504944204175746F74756C
:101770006E652066696E69736865642120507574B2
:1017800020746865206C617374204B702C204B6949
:1017900020616E64204B6420636F6E7374616E749D
:1017A000732066726F6D2062656C6F7720696E744E
:1017B0006F20436F6E66696775726174696F6E2E14
:1017C000680A00504944204175746F74756E652035
:1017D0006661696C6564212074696D656F75740A52
:1017E00000504944204175746F74756E65206661C0
:1017F000696C6564212054656D70657261747572E1
:101800006520746F6F20686967680A00204B643A2E
:101810002000204B693A2000204B703A20000A201B
:10182000436C617373696320504944200A0020545B
:10183000753A2000204B753A2000206D61783A20DF
:1018400000206D696E3A200020643A200020626911
:1018500061733A20001000C90210012C01400122DE
:101860000170011801B0010E01F00104015002FAEB
:1018700000B002F0003003E600D003DC009004D298
:10188000007005C800A006BE000008B400B009AA98
:1018900000D00BA000600E960060118C0000158235
:1018A0000020197800C01D6E00A0226400B0275AE5
:1018B00000902C500000314600E0343C00103832DB
:1018C00000903A2800603C1E00A03D1400803E0AB3
:1018D00000203F000070012C0190012701B001227F
:1018E00001C0011D01F00118011002130130020EA8
:1018F000016002090190020401C002FF000003FA26
:10190000004003F5008003F000D003EB002004E664
:10191000007004E100E004DC004005D700C005D2FF
:10192000004006CD00D006C8008007C3003008BEC6
:1019300000F008B900C009B400B00AAF00B00BAAAB
:1019400000D00CA500000EA000500F9B00C0109608
:10195000005012910000148C00C0158700B017824F
:1019600000B0197D00D01B7800001E730040206E6F
:101970000090226900F024640040275F0090295AFB
:1019800000E02B5500102E500020304B0010324646
:1019900000E033410090353C00103737007038329A
:1019A00000A0392D00B03A2800A03B2300603C1E67
:1019B00000103D1900903D1400103E0F00703E0ACB
:1019C00000C03E0500003F0000403FFBFF803FF6A7
:1019D000FFC03FF1FF01290229042908291029200D
:1019E0002940298029012C022C01260226042608E0
:1019F000261026202640268026402C802C012302FB
:101A000023042308231023202340238023012002C2
:101A100020042008201020202040208020102C208E
:101A20002C012F022F042F082F102F202F402F8042
:101A30002F7EFE7EFD7EFB7EF77EEF7EDF7EBF7E0D
:101A40007F00010000F21A1200020000AF1A4300EA
:101A5000030000AB1A0401030904911A18020309D8
:101A600004791A16030309046B1A0C0C03310032B3
:101A700000330034003500000016035500530042C7
:101A8000002000530065007200690061006C0000D6
:101A90000018035400650065006E0073007900644F
:101AA00000750069006E006F00000004030904095E
:101AB000024300020100C0320904000001020201D9
:101AC000000524001001052401000104240206057C
:101AD00024060001070582030800400904010002F2
:101AE0000A000000070503024000000705840240C9
:101AF00000001201000202000020C0168304000151
:101B0000010203010001C1020180360181364E410C
:101B10004E494E495459494E46CDCCCC3D0AD72367
:101B20003C17B7D13877CC2B329595E6241FB14FAF
:101B30000A000020410000C84200401C4620BCBEF4
:101B40004CCA1B0E5AAEC59D74008E2E33676A8533
:101B5000C3939B2E11241FBECFEFD0E2DEBFCDBFBB
:101B600012E0A0E0B1E0EEEFFEE301E00BBF02C047
:101B700007900D92A034B107D9F72CE0A0E4B2E0B1
:101B800001C01D92A436B207E1F71DE0C9EADDE00D
:101B900004C02197FE010E942D98C53AD107C9F7CC
:101BA0000E94E6910C94739F0C940000FB0101903D
:101BB0000020E9F73197AF01461B570BDC01ED918F
:101BC000FC910280F381E02D09940C940591CF9350
:101BD000DF931F92CDB7DEB76983DC01ED91FC91F5
:101BE0000280F381E02D41E050E0BE016F5F7F4F46
:101BF00009950F90DF91CF9108950FB6F8948091D9
:101C00004B0C90914C0CA0914D0CB0914E0C0FBE12
:101C10008093F3029093F402A093F502B093F6023E
:101C200008958091230190912401A0912501B09104
:101C3000260180933C0390933D03A0933E03B09311
:101C40003F03809121019091220190933B03809367
:101C50003A0384E690E09093220180932101CDCF56
:101C600080913C0390913D03A0913E03B0913F03CE
:101C70008093230190932401A0932501B093260122
:101C800080913A0390913B0390932201809321012C
:101C9000B4CF4F925F926F927F92AF92BF92CF92EA
:101CA000DF92EF92FF92CF93DF93EB01FC01608113
:101CB0007181828193812CE3C22ED12CE12CF12CF5
:101CC000A70196010E94EF97B62EA72ECA01B9016F
:101CD000A70196010E94EF976B017C01CA01B9012F
:101CE00028E130E040E050E00E94EF972B013C01FA
:101CF000C9016DE671E00E94C89761157105D9F0C0
:101D0000AF92BF92DF92CF925F924F929F938F9349
:101D10007F936F9381E996E09F938F93DF93CF93A7
:101D20000E94919C8DB79EB70E960FB6F8949EBFF9
:101D30000FBE8DBF61C00097C9F0AF92BF92DF9216
:101D4000CF925F924F929F938F9381E896E09F93FB
:101D50008F93DF93CF930E94919CEDB7FEB73C9693
:101D60000FB6F894FEBF0FBEEDBF46C0411451043C
:101D700061047104B9F0AF92BF92DF92CF925F928B
:101D80004F9285E796E09F938F93DF93CF930E94C6
:101D9000919C8DB79EB70A960FB6F8949EBF0FBE62
:101DA0008DBF2AC0C114D104E104F104A9F0AF929F
:101DB000BF92DF92CF928DE696E09F938F93DF9351
:101DC000CF930E94919CEDB7FEB738960FB6F8946A
:101DD000FEBF0FBEEDBF10C0AF92BF9289E696E086
:101DE0009F938F93DF93CF930E94919C0F900F90BE
:101DF0000F900F900F900F90DF91CF91FF90EF9089
:101E0000DF90CF90BF90AF907F906F905F904F909A
:101E1000089581548A3150F5482F50E0FA0193E03B
:101E2000F595E7959A95E1F7E15EFA4F208130E06C
:101E30008770B90102C0759567958A95E2F760FFD2
:101E400015C0FA01EB5FFA4F2081222339F080910F
:101E50002A0590912B05820F911D02C080E090E031
:101E6000909327058093260581E0089580E00895EA
:101E7000D0DF882341F081E02091260530912705AD
:101E8000232B09F480E008950F931F93CF93809143
:101E9000260590912705009711F1FC018F01C19152
:101EA0002C2F2F7DA9F0C53411F0C536B9F7F801F4
:101EB000108260E070E080912605909127050E94D5
:101EC0005598F801C083562F472F382F292F0BC064
:101ED00060E070E0CF911F910F910C94559850E005
:101EE00040E030E020E0652F742F832F922FCF91B8
:101EF0001F910F91089580912605909127050097D5
:101F000031F04AE050E060E070E00C94BB9960E092
:101F100070E0CB01089580912605909127050097E8
:101F200031F04AE050E060E070E00C94E39A60E049
:101F300070E0CB010895DFDF97FD0AC0DCDF6F3F63
:101F400071058105910509F02CF4D5DF862F0895E0
:101F500080E008958FEF08958091260590912705E0
:101F6000892B31F0E8DF91E0811103C090E001C0DE
:101F700091E0892F08950F931F93CF93DF93CDB7EF
:101F8000DEB72C970FB6F894DEBF0FBECDBFE3EEE1
:101F9000F4E080859185A285B38544815581668171
:101FA0007781008111812281338109871A872B87EC
:101FB0003C874D835E836F83788789839A83AB8365
:101FC000BC83AE014F5F5F4FBE016B5F7F4FCE01A1
:101FD00009960E9430582FEE34E0AE014F5F5F4FFC
:101FE000BE016B5F7F4FCE0109960E9425652C963E
:101FF0000FB6F894DEBF0FBECDBFDF91CF911F911A
:102000000F9108958F929F92AF92BF92CF92DF92DD
:10201000EF92FF920F931F93CF93DF93CDB7DEB76D
:1020200060970FB6F894DEBF0FBECDBF49015C01CB
:10203000AA0CBB1CAA0CBB1CC5018D519B4F6C018B
:10204000FC0110821182128213824D875E876F8796
:10205000788B91DF4D855E856F857889F6014083A9
:10206000518362837383C090FA0220E030E0A901BB
:10207000B801C4010E94B194811108C0F501EC556A
:10208000F64F85909590A590B49004C0C801D401F6
:102090004C015D018091EB049091EC04A091ED0462
:1020A000B091EE044091E7045091E8046091E90496
:1020B0007091EA040091E3041091E4042091E50496
:1020C0003091E60409871A872B873C874D835E830E
:1020D0006F83788789839A83AB83BC83AE014F5F1C
:1020E0005F4FBE016B5F7F4FCE0109960E94305853
:1020F000850174012FEE34E0AE014F5F5F4FBE01EA
:102100006B5F7F4FCE0109960E94DB590E94386FAA
:102110001092000560960FB6F894DEBF0FBECDBFDB
:10212000DF91CF911F910F91FF90EF90DF90CF90B3
:10213000BF90AF909F908F900895CF93DF9300D082
:10214000CDB7DEB72091480C3091490CCE010196F5
:102150002115310519F484569C4002C0821B930B53
:102160009A83898389819A810F900F90DF91CF9113
:102170000895FF920F931F93CF93DF93FC0120816B
:102180002B3319F1D091C404D430F8F4F62EBC01ED
:10219000C091C2040C2F10E0F0E6CF9FC0011124C3
:1021A0008E5B9C4F0E947C9CF801E453FD4FF082B3
:1021B000CF5FC43018F4C093C20402C01092C204AE
:1021C000DF5FD093C40481E001C080E0DF91CF9154
:1021D0001F910F91FF900895EF92FF921F93CF935D
:1021E000DF937C01C6DF182F8823C9F0EEEBFDE0FA
:1021F0006491EF012196662329F086E59CE0E7DCF7
:10220000FE01F6CFB70188E599E00E94376762E2E8
:1022100086E59CE0DCDC6AE086E59CE0D8DC812F8A
:10222000DF91CF911F91FF90EF900895DF92EF9291
:10223000FF920F931F93CF93DF93CDB7DEB76E97C7
:102240000FB6F894DEBF0FBECDBF60914003709112
:1022500041036115710549F14DE150E0CE01019650
:102260007C010E94389C1E8EF7018F010E191F09F8
:10227000D190DD2019F09AE0D912F7CFF701E00FE5
:10228000F11F108260E0C701A7DF882371F0DD2015
:10229000A9F00F5F1F4F8091400390914103080FF9
:1022A000191F109341030093400381E020914003E4
:1022B00030914103232B29F480E003C000E010E0BB
:1022C000F0CF6E960FB6F894DEBF0FBECDBFDF9194
:1022D000CF911F910F91FF90EF90DF900895CF92D3
:1022E000DF92EF92FF92CF93DF936B017C01C0E00E
:1022F000D0E081EB92E00E94AB89C817D90748F47F
:10230000A7019601BE0181EB92E00E9435892196DA
:10231000F0CF81EB92E0DF91CF91FF90EF90DF90D3
:10232000CF900C9407886FEF81EB92E00E94AF8909
:1023300081EB92E00E948A8781EB92E00E940788FD
:102340002FEF40E060E080E00E94A189C8CFEF92CB
:102350000F931F93CF93DF9300D000D0CDB7DEB79C
:102360000E94A1899B01AC01602F81EB92E029833F
:102370003A834B835C830E94AF8929813A814B81E8
:102380005C81E1100CC0CA01B9010F900F900F9051
:102390000F90DF91CF911F910F91EF90A0CF60919F
:1023A000A2027091A30281EB92E00E94358981EB39
:1023B00092E00E9407880091A2021091A3020F5F91
:1023C0001F4F1093A3020093A20281EB92E00E94A0
:1023D000AB890817190720F01092A3021092A202ED
:1023E0000F900F900F900F90DF91CF911F910F9151
:1023F000EF900895EF92FF920F931F93CF93DF9387
:102400007C0184E535DDD82F882369F194DDC82F60
:1024100018162CF5EEEBFDE064918F010F5F1F4F56
:10242000662329F086E59CE0D2DBF801F5CF6DE468
:1024300086E59CE0CCDBA70160E070E020E086E56B
:102440009CE00E949C906C2FCC0F770B8AE198E067
:102450000E945F676AE086E59CE0B9DB08C0809374
:10246000E002D0E004C08091FA028093E0028D2F58
:10247000DF91CF911F910F91FF90EF900895CF9230
:10248000DF92EF92FF920F931F93CF93DF93EC01B4
:10249000CC0FDD1FCC0FDD1FFE01EB5EFC4F20E0FB
:1024A00030E0A90160817181828193810E94D8937B
:1024B000FE01EF5DFC4F20813181428153810E94FA
:1024C000D8936B017C01FE01E75FFC4F6083718351
:1024D00082839383FE01E856F64F6591759185914D
:1024E00094918E0103501D4FA70196010E94D8932D
:1024F000F8016083718382839383FE01E457F64F72
:102500006591759185919491CE5EDE4FA7019601FC
:102510000E94D893688379838A839B83DF91CF91CC
:102520001F910F91FF90EF90DF90CF900895CF9281
:10253000EF92FF920F931F93CF93DF93CDB7DEB748
:102540002C970FB6F894DEBF0FBECDBFC090FA0235
:10255000E3EEF4E080859185A285B38544815581C1
:1025600066817781008111812281338109871A87F1
:102570002B873C874D835E836F83788789839A831B
:10258000AB83BC83AE014F5F5F4FBE016B5F7F4F7C
:10259000CE0109960E943058E0902301F09024016A
:1025A00000912501109126012FEE34E0AE014F5F1E
:1025B0005F4FBE016B5F7F4FCE0109960E94DB59D2
:1025C0002C960FB6F894DEBF0FBECDBFDF91CF9132
:1025D0001F910F91FF90EF90CF9008958F929F924F
:1025E000AF92BF92CF92EF92FF920F931F93CF9330
:1025F000DF93CDB7DEB72C970FB6F894DEBF0FBED2
:10260000CDBF4B015C01C090FA02E3EDF4E08085A0
:102610009185A285B385448155816681778100814A
:1026200011812281338109871A872B873C874D834B
:102630005E836F83788789839A83AB83BC83AE0183
:102640004F5F5F4FBE016B5F7F4FCE0109960E94C7
:102650003058850174012FED34E0AE014F5F5F4FBC
:10266000BE016B5F7F4FCE0109960E94DB592C960D
:102670000FB6F894DEBF0FBECDBFDF91CF911F9193
:102680000F91FF90EF90CF90BF90AF909F908F9061
:10269000089580E1E3EDF4E0A3EEB4E001900D9243
:1026A0008A95E1F708954F925F926F927F928F9291
:1026B0009F92AF92BF92CF92DF92EF92FF920F93D1
:1026C0001F93CF93DF935C014B01EA018901409096
:1026D00023015090240160902501709026012881EB
:1026E00039814A815B816091EB047091EC048091A7
:1026F000ED049091EE040E94B19487FF29C0F80187
:10270000C080D180E280F38020E030E0A901C701E1
:10271000B6010E94B194811106C0ECEAF9E0C590BF
:10272000D590E590F490C0922301D0922401E092DC
:102730002501F092260188819981AA81BB8180932D
:10274000EB049093EC04A093ED04B093EE04EFDE61
:10275000F801C080D180E280F38020E030E0A90160
:10276000C701B6010E94B194811108C0C09009014F
:10277000D0900A01E0900B01F0900C01C09223016F
:10278000D0922401E0922501F0922601F50180818A
:102790009181A281B3818093E3049093E404A09398
:1027A000E504B093E604F40180819181A281B381B4
:1027B0008093E7049093E804A093E904B093EA04BB
:1027C000B6DE288139814A815B816091EB0470918A
:1027D000EC048091ED049091EE040E94B4961816DA
:1027E0004CF5F801C080D180E280F38020E030E039
:1027F000A901C701B6010E94B194811106C0ECEA9B
:10280000F9E0C590D590E590F490C0922301D09264
:102810002401E0922501F092260188819981AA8104
:10282000BB818093EB049093EC04A093ED04B093F0
:10283000EE047DDE0E94386F409223015092240105
:102840006092250170922601DF91CF911F910F9127
:10285000FF90EF90DF90CF90BF90AF909F908F90C0
:102860007F906F905F904F9008959B01AC0167EE51
:1028700074E083EE94E017CF9A014BEE54E013CF4F
:10288000EF92FF920F931F93CF93DF93882329F04A
:102890001091D00481E0182701C010E0662329F0D0
:1028A000D091D10481E0D82701C0D0E0442329F0A1
:1028B000C091D20481E0C82701C0C0E0111105C059
:1028C000D11103C0CC2309F456C0EEEBFDE06491B6
:1028D0007F018FEFE81AF80A662329F086E59CE06D
:1028E00076D9F701F4CFE4E1F8E064917F018FEF4E
:1028F000E81AF80A662329F086E59CE068D9F70112
:10290000F4CF112369F0E2E1F8E064918F010F5FE9
:102910001F4F662329F086E59CE059D9F801F5CFD1
:10292000DD2369F0E0E1F8E064918F010F5F1F4F54
:10293000662329F086E59CE04AD9F801F5CFC1115C
:1029400003C0E6E0F8E00CC0EEE0F8E06491EF01CF
:1029500021966623B1F386E59CE039D9FE01F6CFD6
:102960006491EF012196662329F086E59CE02FD93A
:10297000FE01F6CFC1E08C2FDF91CF911F910F9117
:10298000FF90EF900895CF92DF92EF92FF921F9306
:10299000CF93DF93CDB7DEB72C970FB6F894DEBF99
:1029A0000FBECDBF9091FD04981709F469C0182F90
:1029B00080E090E0A0E2B1E48D839E83AF83B8878E
:1029C000C090DC02D090DD02E090DE02F090DF02E9
:1029D00020E030E0A901C701B6010E94B19487FF51
:1029E0000CC0A701960160E070E080E291E40E94D3
:1029F000D7936D837E838F8398872091EB043091EA
:102A0000EC044091ED045091EE046D817E818F8144
:102A100098850E94B496181654F419821A821B8263
:102A20001C82BE016F5F7F4FCE0105961EDF809135
:102A3000E3049091E404A091E504B091E604898751
:102A40009A87AB87BC878091E7049091E804A091B6
:102A5000E904B091EA048D839E83AF83B88719821D
:102A60001A821B821C829E012F5F3F4F4BEE54E067
:102A7000BE016B5F7F4FCE01099615DE1093FD04FA
:102A800080E02C960FB6F894DEBF0FBECDBFDF916D
:102A9000CF911F91FF90EF90DF90CF9008954F92CC
:102AA0005F926F927F928F929F92AF92BF92EF92BE
:102AB000FF920F931F93CF93DF93EC01FC01EB592F
:102AC000F64F1491029721F481E05DDF811108C176
:102AD0007E01EE0CFF1CEE0CFF1CF701EC58F64FCC
:102AE0004590559065907490612F110F770B880B6E
:102AF000990B0E9453954B015C0120E030E040ECC3
:102B00005FE3C301B2010E94EF96A50194010E9408
:102B1000EF96AB01BC0100E010E09801CE0172DA43
:102B2000C230D10589F400E719E0F801659175918B
:102B30008591949120E030E040EA50E40E94B19405
:102B400087FD0AC0F80103C0F701E859F64F259147
:102B500035914591549104C020E030E040EA50E4C2
:102B6000C501B4010E94EF964B015C0120E030E00A
:102B7000A9010E94B194882309F449C000E010E043
:102B80009801B501A4017058CE013CDAFE01E0566F
:102B9000F84F649161111BC0EEEBFDE064918F0171
:102BA0000F5F1F4F662329F086E59CE010D8F801DF
:102BB000F5CFEEE7F7E064918F010F5F1F4F6623BB
:102BC00029F086E59CE003D8F801F5CF6AE0F7012B
:102BD000EC55F64F459055906590749070E080E00C
:102BE00090E00E9453959B01AC01C301B2010E9489
:102BF000B8942B013C01A5019401C501B4010E94C8
:102C0000D893AB01BC0193018201CE01FBD981E0D5
:102C1000FE01E053FB4F8083FE01E353FB4F8083B3
:102C2000F701EF5DFC4F1082118212821382CE01F8
:102C300026DCF701E058F64F6591759185919491E6
:102C400087010D511B4FF701E75FFC4F2081318158
:102C5000428153810E94D893F801608371838283FB
:102C60009383C230D105D1F42091DC023091DD0292
:102C70004091DE025091DF026091EB047091EC0410
:102C80008091ED049091EE040E94D7936093EB0441
:102C90007093EC048093ED049093EE046CD9F701EB
:102CA000ED52FB4FD701AD51BB4F8D919D910D90D2
:102CB000BC91A02D80839183A283B383229781F45A
:102CC00080E0DF91CF911F910F91FF90EF90BF9027
:102CD000AF909F908F907F906F905F904F9053CE6A
:102CE000DF91CF911F910F91FF90EF90BF90AF9028
:102CF0009F908F907F906F905F904F9008958091FC
:102D000082050895BF92CF92DF92EF92FF920F93C8
:102D10001F93CF93DF9383EDE82E84E0F82E03EE2C
:102D200014E096E3C92E93E0D92EC2EBD1E0BC2E7D
:102D300084E0B80E89916DD88823D1F0A5D8F6012A
:102D40002081211104C02091F902222331F0F801E1
:102D5000208131814281538103C020E030E0A9010C
:102D60000E94D893F70160837183828393830AC0A2
:102D7000F80180819181A281B381F70180839183E1
:102D8000A283B383F4E0EF0EF11C0C5F1F4F8FEFB3
:102D9000C81AD80ABC12CECF86E46AD88823B9F004
:102DA00073D820E030E0A9010E94B49618167CF494
:102DB0006BD820E030E040E752E40E94B894609382
:102DC0002301709324018093250190932601DF91C4
:102DD000CF911F910F91FF90EF90DF90CF90BF9018
:102DE0000895CF92DF92EF92FF920F931F93CF93AC
:102DF000DF930FB6F894C0904B0CD0904C0CE09041
:102E00004D0CF0904E0C0FBE80910801882309F400
:102E100072C08091CA029091CB02009709F46BC0F6
:102E20004091C6025091C7026091C8027091C902D8
:102E300097018601041B150B260B370B37FD6EC05F
:102E40008330910531F134F401970CF454C0EEEB6A
:102E5000FDE006C0049709F04EC0EEEBFDE033C084
:102E60006491EF012196662331F086E59CE00E9493
:102E7000E70DFE01F5CFE2EDF7E06491EF01219659
:102E8000662309F438C086E59CE00E94E70DFE0148
:102E9000F4CFEEEBFDE06491EF012196662331F073
:102EA00086E59CE00E94E70DFE01F5CFEBEBF7E035
:102EB0006491EF0121966623F1F086E59CE00E9483
:102EC000E70DFE01F5CF6491EF012196662331F005
:102ED00086E59CE00E94E70DFE01F5CFE3EAF7E00E
:102EE0006491EF012196662331F086E59CE00E9413
:102EF000E70DFE01F5CF2091080130E0A8EEB3E028
:102F00000E943698C60ED71EE81EF91EC092C60251
:102F1000D092C702E092C802F092C902DF91CF912D
:102F20001F910F91FF90EF90DF90CF9008950F9336
:102F30001F93CF93DF93CDB7DEB769970FB6F894A1
:102F4000DEBF0FBECDBF81EE92E00E9408726E8B95
:102F50007F8B888F998FBE016F5F7F4FCE01469622
:102F60000E94490EEEEBFDE064918F010F5F1F4F51
:102F7000662331F086E59CE00E94E70DF801F4CF6E
:102F8000BE016F5F7F4F85EA96E00E9437676AE077
:102F900086E59CE00E94E70D69960FB6F894DEBFC7
:102FA0000FBECDBFDF91CF911F910F91089588E69D
:102FB00090E020DA811126C08091F30483FD22C0C5
:102FC00083E50E94380F8823D9F00E94440F0E94A5
:102FD00020957093800B60937F0B80E00E941F769A
:102FE0000E94440F20E030E04AEA52E40E94B1948B
:102FF000181624F081EE92E00E94D1710E94440FD5
:103000000C9403670895EF92FF920F931F93CF9351
:10301000DF931F92CDB7DEB78C017B0160E286E5BE
:103020009CE049830E94E70D49814F3F11F064E520
:1030300001C062E486E59CE00E94E70D6AE386E554
:103040009CE00E94E70DF80140815181628173810B
:1030500022E030E086E59CE00E94E50DF70140812A
:103060005181628173818BE797E00F90DF91CF915F
:103070001F910F91FF90EF900C949C670F931F93FB
:10308000CF93DF93CDB7DEB728970FB6F894DEBFA6
:103090000FBECDBF60917F0B7091800B072E000C8F
:1030A000880B990B0E94539569837A838B839C8349
:1030B0008091870B9091880BA091890BB0918A0B1E
:1030C0008D839E83AF83B8874EEFBE016F5F7F4FC6
:1030D000CE01059698DF60917B0B70917C0B072EDB
:1030E000000C880B990B0E94539569837A838B831C
:1030F0009C838091830B9091840BA091850BB09160
:10310000860B8D839E83AF83B8874FEFBE016F5FC1
:103110007F4FCE01059677DFE7E7F7E064918F01F7
:103120000F5F1F4F662331F086E59CE00E94E70D9C
:10313000F801F4CF8091E00290E00E942573AC0189
:10314000990F660B770B86E59CE00E94F890E2E70A
:10315000F7E064918F010F5F1F4F662331F086E522
:103160009CE00E94E70DF801F4CF8FEF9FEF0E94E3
:103170002573AC01990F660B770B86E59CE00E94E6
:10318000F89028960FB6F894DEBF0FBECDBFDF9142
:10319000CF911F910F910895CF93DF9389E690E02F
:1031A00029D9811115C0E4EEF5E06491EF01219673
:1031B000662331F086E59CE00E94E70DFE01F5CF25
:1031C0005DDF6AE086E59CE0DF91CF910C94E70D2E
:1031D000DF91CF910895CF92DF92EF92FF9283E536
:1031E0000E94380F882339F10E949B0F8D3308F01D
:1031F0008CE38093A8020FB6F894C0904B0CD0904B
:103200004C0CE0904D0CF0904E0C0FBE2091A8029B
:1032100030E0A8EEB3E00E943698DC01CB018C0DC3
:103220009D1DAE1DBF1D8093A4029093A502A09387
:10323000A602B093A702FF90EF90DF90CF90089581
:10324000CF92DF92EF92FF922091A802222309F4FD
:1032500041C00FB6F89480914B0C90914C0CA0910A
:103260004D0CB0914E0C0FBE4091A4025091A5029E
:103270006091A6027091A702841B950BA60BB70B59
:10328000B7FD28C00FB6F894C0904B0CD0904C0CF2
:10329000E0904D0CF0904E0C0FBE30E0A8EEB3E085
:1032A0000E943698DC01CB018C0D9D1DAE1DBF1D0B
:1032B0008093A4029093A502A093A602B093A702C4
:1032C000DDDE6AE086E59CE0FF90EF90DF90CF9036
:1032D0000C94E70DFF90EF90DF90CF900895CF937F
:1032E000DF9383E50E94380F882339F00E947B0F1B
:1032F000EB016F3F710519F010F0CFEFD0E080E5E2
:103300000E94380F811105C0D093FC02C093FB02CC
:1033100004C00E949B0F8823B9F3DF91CF910895D9
:10332000DF92EF92FF920F931F93CF93DF9383E58A
:103330000E94090F882359F083E50E94380F8823E3
:1033400019F00E949B0F01C080E08093F304EEEB24
:10335000FDE06491EF012196662331F086E59CE063
:103360000E94E70DFE01F5CFEBE2F6E06491EF017C
:103370002196662331F086E59CE00E94E70DFE0170
:10338000F5CF8091F3048823A9F181E2E82E86E04D
:10339000F82E00E010E020E08091F30490E0002E91
:1033A00002C0959587950A94E2F780FF1AC0DD2444
:1033B000D394D20E222329F06CE286E59CE00E9491
:1033C000E70DF70185919491FC016491EC01219640
:1033D000662331F086E59CE00E94E70DCE01F4CF34
:1033E0002D2D0F5F1F4FF2E0EF0EF11C0530110580
:1033F00099F60DC0EDE1F6E06491EF0121966623A8
:1034000031F086E59CE00E94E70DFE01F5CF6AE011
:1034100086E59CE0DF91CF911F910F91FF90EF9097
:10342000DF900C94E70DCF93DF9383E50E94380F74
:10343000882351F00E949B0F8D3308F08CE380931A
:103440000801DF91CF910895EEEBFDE06491EF016B
:103450002196662331F086E59CE00E94E70DFE018F
:10346000F5CF4091080150E060E070E087EE95E014
:103470000E94DE676AE086E59CE0DF91CF910C94C4
:10348000E70D8091F30483FD14C083E50E94380F9B
:10349000882379F00E94440F0E94209567397105B6
:1034A00014F066E970E070937C0B60937B0B0C94D6
:1034B000717608954F925F926F927F92AF92BF9212
:1034C000CF92DF92EF92FF920F931F93CF9382EBF5
:1034D000A82E81E0B82E0BED15E0C0E0F50181913A
:1034E0005F010E94090F882309F46DC0C33009F001
:1034F00063C00E94440F6B017C0120E030E040EA91
:1035000051E40E94B19487FF4EC0A70196016091DB
:10351000E7057091E8058091E9059091EA050E9420
:10352000B8942B013C019B01AC0160919305709113
:10353000940580919505909196050E94EF96609371
:103540009305709394058093950590939605A30138
:1035500092016091F7057091F8058091F9059091BD
:10356000FA050E94EF966093F7057093F805809333
:10357000F9059093FA056091C7057091C80580918F
:10358000C9059091CA050E945195A30192010E941C
:10359000EF960E9425956093C7057093C8058093A8
:1035A000C9059093CA05C092E705D092E805E0925C
:1035B000E905F092EA0507C00E94440FF801608314
:1035C000718382839383CF5F0C5F1F4FC43009F0F8
:1035D00085CFCF911F910F91FF90EF90DF90CF900B
:1035E000BF90AF907F906F905F904F900C94DF668C
:1035F000CF93DF93EFE6F7E06491EF012196662326
:1036000031F086E59CE00E94E70DFE01F5CF409188
:10361000E3045091E4046091E5047091E60422E033
:1036200030E086E59CE00E94E50DEBE6F7E0649172
:10363000EF012196662331F086E59CE00E94E70DBC
:10364000FE01F5CF4091E7045091E8046091E90450
:103650007091EA0422E030E086E59CE00E94E50DEE
:10366000E7E6F7E06491EF012196662331F086E505
:103670009CE00E94E70DFE01F5CF4091EB045091D4
:10368000EC046091ED047091EE0422E030E086E5F8
:103690009CE00E94E50DE3E6F7E06491EF012196DE
:1036A000662331F086E59CE00E94E70DFE01F5CF30
:1036B0004091EF045091F0046091F1047091F20494
:1036C00022E030E086E59CE00E94E50DDF91CF919D
:1036D0000C94FE6F8F929F92AF92BF92CF92DF9227
:1036E000EF92FF920F931F93CF93DF9300D000D000
:1036F000CDB7DEB785E40E94380FD82E811102C005
:103700000E94386F82EBA82E81E0B82E91E2E92E5C
:1037100093E0F92E03EE14E0812C912CC12CF501DD
:1037200081915F010E94380F882369F1F80120819F
:1037300031814281538129833A834B835C830E9488
:10374000440FF801608371838283938329813A81D6
:103750004B815C81F3E08F169104A9F00E94D7930E
:103760009B01AC01F70160817181828193810E948C
:10377000D893F7016083718382839383C4010E948D
:103780003F12CC24C394FFEF8F1A9F0A84E0E80E07
:10379000F11C0C5F1F4FE4E08E16910409F0BFCFBF
:1037A000CC2019F00E94BB0F08C0DD2031F06FEE75
:1037B00074E083E090E00E9419660F900F900F90E4
:1037C0000F90DF91CF911F910F91FF90EF90DF90BD
:1037D000CF90BF90AF909F908F900ACFCF93DF9301
:1037E000E6E1F5E06491EF012196662331F086E58C
:1037F0009CE00E94E70DFE01F5CFE8E0F5E0649162
:10380000EF012196662331F086E59CE00E94E70DEA
:10381000FE01F5CFE1EFF4E06491EF01219666231C
:1038200031F086E59CE00E94E70DFE01F5CFE1EE68
:10383000F4E06491EF012196662331F086E59CE087
:103840000E94E70DFE01F5CFE0EDF4E06491EF0199
:103850002196662331F086E59CE00E94E70DFE018B
:10386000F5CFEFEBF4E06491EF012196662331F0A0
:1038700086E59CE00E94E70DFE01F5CFE0EBF4E069
:103880006491EF012196662331F086E59CE00E9469
:10389000E70DFE01F5CFEBE9F4E06491EF0121962D
:1038A000662331F086E59CE00E94E70DFE01F5CF2E
:1038B000E5E8F4E06491EF012196662331F086E5B6
:1038C0009CE00E94E70DFE01F5CFE0E7F4E0649193
:1038D000EF012196662331F086E59CE00E94E70D1A
:1038E000FE01F5CFE3E5F4E06491EF012196662354
:1038F00031F086E59CE00E94E70DFE01F5CFEBE399
:10390000F4E06491EF012196662331F086E59CE0B6
:103910000E94E70DFE01F5CFDF91CF910895CF937F
:10392000DF9385E40E94090F882389F00E94AC0F81
:10393000882369F0EEEBFDE06491EF0121966623A8
:1039400031F086E59CE00E94E70DFE01F5CF81E4B1
:103950000E94090F882389F00E94AC0F882369F028
:10396000E7E3F4E06491EF012196662331F086E508
:103970009CE00E94E70DFE01F5CF60912805709153
:10398000290586E59CE00E94D60D6AE086E59CE06C
:10399000DF91CF910C94E70DEF920F931F93CF938C
:1039A000DF9380E50E94090F882349F08091260566
:1039B00090912705892B49F00E949B0F04C081EB51
:1039C00092E00E94F089082F01C00FEF87E50E9466
:1039D000090F882351F08091260590912705892BA6
:1039E00031F00E949B0F182F03C010E001C01FEFA1
:1039F00082E40E94090F882351F08091260590915E
:103A00002705892B31F00E949B0FD82F03C0D0E0EF
:103A100001C0DFEF85E50E94090F882351F08091F6
:103A2000260590912705892B31F00E949B0FC82F06
:103A300003C0C0E001C0CFEF82E50E94090F8823D8
:103A400049F08091260590912705892B29F00E9445
:103A50009B0F03C080E001C08FEFE12C212F4D2F81
:103A60006C2F0E94A711DF91CF911F910F91EF90C2
:103A7000089583E50E94090F8823E9F00E94440F0E
:103A8000AB01BC0140939F055093A0056093A10535
:103A90007093A205409397055093980560939905FC
:103AA00070939A058FE094E00E949C676AE086E537
:103AB0009CE00E94E70D80E50E94090F8823A9F091
:103AC0000E94440FAB01BC0140939F055093A00599
:103AD0006093A1057093A20582EF93E00E949C671A
:103AE0006AE086E59CE00E94E70D82E50E94090FEE
:103AF0008823A9F00E94440FAB01BC0140939B05B1
:103B000050939C0560939D0570939E0583ED93E013
:103B10000E949C676AE086E59CE00E94E70D84E5D0
:103B20000E94090F8823A9F00E94440FAB01BC0139
:103B300040939705509398056093990570939A0563
:103B400085EB93E00E949C676AE086E59CE00C941C
:103B5000E70D089583E50E94090F882351F00E9424
:103B6000440F6093A3057093A4058093A5059093DB
:103B7000A60584E50E94090F882351F00E94440F96
:103B800060938305709384058093850590938605E3
:103B900082E40E94090F882351F00E948B0F6093EA
:103BA000A7057093A8058093A9059093AA0588E5B9
:103BB0000E94090F882351F00E94440F60938705EB
:103BC000709388058093890590938A0589E50E9402
:103BD000090F882351F00E94440F60938B05709366
:103BE0008C0580938D0590938E058AE50E94090FC0
:103BF000882351F00E94440F60938F0570939005C5
:103C0000809391059093920585E40E94090F882383
:103C100051F00E94440F6093930570939405809334
:103C200095059093960508958F929F92AF92BF92BB
:103C3000CF92DF92EF92FF920F931F93CF93DF9378
:103C400082EBC82E81E0D82E93EEE92E94E0F92E77
:103C500005E113E0C0E0D0E0F60181916F010E9420
:103C6000090F882309F10E94440F4B015C01F80100
:103C700020813181428153810E94D7939B01AC0105
:103C8000F70160817181828193810E94D893F7014D
:103C90006083718382839383F80180829182A28200
:103CA000B382CE010E943F122196F4E0EF0EF11C88
:103CB0000C5F1F4FC330D10579F60E94BB0FDF9117
:103CC000CF911F910F91FF90EF90DF90CF90BF9019
:103CD000AF909F908F908CCCCF93DF93EEEBFDE075
:103CE0006491EF012196662331F086E59CE00E9405
:103CF000E70DFE01F5CF83E50E94090F882321F02F
:103D00000E94AC0F80931E01E5EAF3E06491EF019D
:103D10002196662331F086E59CE00E94E70DFE01C6
:103D2000F5CF80911E01811103C0EDE9F3E002C0DF
:103D3000E1EAF3E06491EF012196662331F086E534
:103D40009CE00E94E70DFE01F5CFE5E9F3E0649108
:103D5000EF012196662331F086E59CE00E94E70D95
:103D6000FE01F5CF4091FD025091FE026091FF02ED
:103D70007091000383E993E00E949C6740910103E6
:103D800050910203609103037091040380E993E072
:103D90000E949C67409105035091060360910703C0
:103DA000709108038DE893E00E949C67E5E8F3E0DA
:103DB0006491EF012196662331F086E59CE00E9434
:103DC000E70DFE01F5CF4091120150911301609172
:103DD00014017091150183E893E00E949C67409163
:103DE000160150911701609118017091190180E836
:103DF00093E00E949C6740911A0150911B016091D1
:103E00001C0170911D018DE793E00E949C676AE0A0
:103E100086E59CE0DF91CF910C94E70DCF93DF9383
:103E200085E40E94380F811110C080E50E94090FBF
:103E3000882391F00E94440F6093770B7093780B66
:103E40008093790B90937A0B07C00E949B0F882375
:103E500061F3E4ECFDE06EC089E40E94090F882361
:103E600081F00E94440F2CEA35EC47E25EE30E94A9
:103E7000EF966093730B7093740B8093750B909314
:103E8000760B84E40E94090F882381F00E94440F7E
:103E90002CEA35EC47E25EE30E94B89460936F0B26
:103EA0007093700B8093710B9093720B0E9424732C
:103EB000EEEBFDE06491EF012196662331F086E59B
:103EC0009CE00E94E70DFE01F5CF4091770B5091E9
:103ED000780B6091790B70917A0B89E793E00E94DF
:103EE0009C672CEA35EC47E25EE36091730B7091BE
:103EF000740B8091750B9091760B0E94B894AB0176
:103F0000BC0185E793E00E94BD672CEA35EC47E2EF
:103F10005EE360916F0B7091700B8091710B9091CB
:103F2000720B0E94EF96AB01BC0181E793E00E9407
:103F3000BD6711C06491EF012196662331F086E5DB
:103F40009CE00E94E70DFE01F5CF66E871E086E592
:103F50009CE00E94D60D6AE086E59CE0DF91CF915F
:103F60000C94E70DCF93DF9383E50E94090FC82FD0
:103F7000882371F00E94440F0E942095709348019D
:103F80006093470121E0672B09F020E02093620B4A
:103F900080E50E94090F882359F020914701309154
:103FA0004801232B11F00E94AC0F8093620B31C0AB
:103FB000C1112FC0EEEBFDE06491EF012196662365
:103FC00031F086E59CE00E94E70DFE01F5CF80917F
:103FD000620B811103C067E971E002C066EC71E019
:103FE0008EE593E00E943767609147017091480128
:103FF0008DE493E00E945F67E9E4F3E06491EF01F0
:104000002196662331F086E59CE00E94E70DFE01D3
:10401000F5CFDF91CF9108958F929F92AF92BF928B
:10402000EF92FF920F93CF93DF9385E40E94380FB6
:10403000882321F00E947B0FEB0102C0C0E0D0E09A
:1040400083E40E94380F882321F00E947B0F7B01BC
:1040500003C025E0E22EF12C85E50E94090F082F10
:10406000882319F00E94AC0F082FD7FD07C0812CC0
:10407000912C96E1A92E93E4B92E06C0812C912CA7
:104080008CE8A82E82E4B82E83E50E94380F88239E
:1040900021F00E94440F4B015C01C501B4010E9454
:1040A0002095209711F41092E002072E000C880B47
:1040B000990B0E9453959701AE010E94E476DF911F
:1040C000CF910F91FF90EF90BF90AF909F908F9006
:1040D00008952F923F924F925F926F927F928F92AC
:1040E0009F92AF92BF92CF92DF92EF92FF920F9387
:1040F0001F93CF93DF9385E1E82E83E0F82E03EE44
:1041000014E090EDC92E94E0D92EC0E0D0E0C601B5
:10411000805D94401C01F60181916F01882309F4B0
:104120008AC0F8014080518062807380FE01EE5E9B
:10413000FE4F2081318142815381FE01E350FD4FCA
:1041400060817181828193810E94D89320E030E068
:1041500040E05FE30E94EF969B01AC01C301B20116
:104160000E94B496181644F4FE01E058F64F85906C
:104170009590A590B49003C0812C912C5401FE0120
:10418000E75FFC4F2081318142815381C301B2013D
:104190000E94D7939B01AC01C501B4010E94D79343
:1041A0004B015C0120E030E040EA51EC0E94B49603
:1041B00087FD27C020E030E040EA51E4C501B401AA
:1041C0000E94B1941816ECF0F701208131814281F0
:1041D0005381C501B4010E94D7939B01AC01C30177
:1041E000B2010E94D893F801608371838283938324
:1041F000F70180829182A282B382C1010E943F12A4
:104200001AC0E4ECFDE06491EF012196662331F0E1
:1042100086E59CE00E94E70DFE01F5CFE1EEF2E0BD
:104220006491EF012196662329F186E59CE00E94C6
:10423000E70DFE01F5CFF4E0EF0EF11C24960C5FC4
:104240001F4FCC30D10509F062CF0E94BB0FDF9128
:10425000CF911F910F91FF90EF90DF90CF90BF9083
:10426000AF909F908F907F906F905F904F903F9016
:104270002F90BEC9DF91CF911F910F91FF90EF90CA
:10428000DF90CF90BF90AF909F908F907F906F9076
:104290005F904F903F902F9008958091DC02909115
:1042A000DD02A091DE02B091DF02809304019093C1
:1042B0000501A0930601B09307010895CF92DF9204
:1042C000EF92FF92CF93DF93EEEBFDE06491EF016D
:1042D0002196662331F086E59CE00E94E70DFE0101
:1042E000F5CFE7EDF2E06491EF012196662331F01E
:1042F00086E59CE00E94E70DFE01F5CF8AE50E946D
:10430000090F882309F43DC00E94440F6B017C0112
:1043100020E030E040EA51EC0E94B49687FD0AC0EC
:1043200020E030E040EA51E4C701B6010E94B194B8
:1043300018161CF4E0ECF2E019C0C092DC02D09236
:10434000DD02E092DE02F092DF02C0920401D09220
:104350000501E0920601F092070122E030E0B7018A
:10436000A60186E59CE00E94E50D17C06491EF016F
:104370002196662391F086E59CE00E94E70DFE0100
:10438000F5CF4091DC025091DD026091DE02709128
:10439000DF028DEB92E00E949C676AE086E59CE07C
:1043A000DF91CF91FF90EF90DF90CF900C94E70DCD
:1043B000CF92DF92EF92FF920F931F93CF9302EB76
:1043C00011E07801C0E0F70181917F010E94090F9F
:1043D000882339F00E94440FAB01BC018C2F0E944E
:1043E000344FCF5FC43079F78EE38C0F0E94090FF2
:1043F000882339F00E94440FAB01BC018C2F0E942E
:10440000344FCF5FC83081F783E50E94090F8111D7
:1044100002C0C0E00EC00E94440F6B017C01C0E0EE
:10442000B701A6018C2F0E94DE70CF5FC530C1F7A7
:10443000F0CFF80181918F010E94090F882339F094
:104440000E94440FAB01BC018C2F0E94DE70CF5F35
:10445000C43079F7CF911F910F91FF90EF90DF90CB
:10446000CF900895CF93DF9383E50E94380F882380
:1044700021F00E947B0FEB0102C0C0E0D0E080E59C
:104480000E94380F882319F00E949B0F01C08FEF04
:10449000BE01DF91CF910C941F71CF93DF93E4ECB9
:1044A000FDE06491EF012196662331F086E59CE002
:1044B0000E94E70DFE01F5CFEEEAF2E06491EF0114
:1044C0002196662331F086E59CE00E94E70DFE010F
:1044D000F5CFDF91CF9108951F93CF93DF93182FDE
:1044E000EEEBFDE06491EF012196662331F086E565
:1044F0009CE00E94E70DFE01F5CF64E586E59CE0B7
:104500000E94E70D412F50E060E070E020E086E57A
:104510009CE00E949C9060E286E59CE00E94E70D92
:1045200066E871E086E59CE00E94D60D6AE086E5CB
:104530009CE0DF91CF911F910C94E70DCF93DF9317
:10454000882319F0DF91CF91C7CF1092FA02EEEBDA
:10455000FDE06491EF012196662331F086E59CE051
:104560000E94E70DFE01F5CF6091FA0270E081E54F
:1045700097E00E945F676AE086E59CE0DF91CF915B
:104580000C94E70DCF93DF930E94FD0DE091C304DF
:10459000F0E0E453FD4F80818823A1F0E2EAF2E0ED
:1045A0006491EF012196662331F086E59CE00E943C
:1045B000E70DFE01F5CF6AE086E59CE0DF91CF9143
:1045C0000C94E70DDF91CF910895CF92DF92EF9297
:1045D000FF92CF93DF9320911E01222309F485C01F
:1045E000EC01C090FD02D090FE02E090FF02F0903E
:1045F0000003A7019601688179818A819B810E94CD
:10460000B19487FF04C0C882D982EA82FB82C0903D
:104610000103D0900203E0900303F0900403A7018C
:1046200096016C817D818E819F810E94B19487FF6C
:1046300004C0CC82DD82EE82FF82C0900503D09060
:104640000603E0900703F0900803A7019601688530
:1046500079858A859B850E94B19487FF04C0C886AE
:10466000D986EA86FB86C0901201D0901301E090B3
:104670001401F0901501A7019601688179818A8162
:104680009B810E94B496181624F4C882D982EA82CB
:10469000FB82C0901601D0901701E0901801F090B5
:1046A0001901A70196016C817D818E819F810E94F5
:1046B000B496181624F4CC82DD82EE82FF82C0907C
:1046C0001A01D0901B01E0901C01F0901D01A70180
:1046D0009601688579858A859B850E94B49618160F
:1046E00024F4C886D986EA86FB86DF91CF91FF90B5
:1046F000EF90DF90CF900895CF93DF9380E090E02C
:104700000E94A66FC0EDD2E0688379838A839B8381
:1047100081E090E00E94A66F6C837D838E839F83EF
:1047200082E090E00E94A66F688779878A879B87DE
:10473000DF91CF910895CF93DF93EC01DDDF80ED22
:1047400092E00E94FD58C436D10551F48CE0E0EDB2
:10475000F2E0A3EEB4E001900D928A95E1F711C06A
:10476000CC0FDD1FCC0FDD1FFE01ED51FB4FC05301
:10477000DD4F88819981AA81BB8180839183A28347
:10478000B383DF91CF91089590918205891759F0F5
:1047900080938205811103C084E690E0CCCF83EE44
:1047A00094E00C94FD58089580E0EEDF8EE595E0EE
:1047B0000C945882EF92FF920F931F93CF93DF9345
:1047C00000D000D0CDB7DEB7182F0E94386F80E040
:1047D000DBDF0E94110E81E080930205111119C0E8
:1047E00088E50E94090FF82E89E50E94090F082F1D
:1047F0008AE50E94090FE82EF11006C0011113C0CE
:10480000882369F0F02E10C0002369F0F02E182FD5
:104810000BC0FF24F39401E0EE24E39402C0F82ED1
:10482000082F11E001C010E080E1E3EEF4E0A3ED19
:10483000B4E001900D928A95E1F7111105C0F110D5
:1048400003C0002309F440C020E030E040EA50E417
:1048500060911103709112038091130390911403DE
:104860000E94D8936093DB047093DC048093DD0492
:104870009093DE042091EB043091EC044091ED0420
:104880005091EE040E94B49618165CF419821A82B4
:104890001B821C82BE016F5F7F4F8BED94E00E94F4
:1048A0003514111105C0F11003C0011107C00CC06F
:1048B00080E090E00E944F151123B9F381E090E071
:1048C0000E944F15111102C0EE2021F082E090E00D
:1048D0000E944F150E94BB0F809101058093020535
:1048E0000E94300E0E94F81A0F900F900F900F90B8
:1048F000DF91CF911F910F91FF90EF9008951F933B
:10490000CF93DF9386E50E94090F882331F06CE294
:1049100073E08EE595E00E94458483E50E94090FCF
:10492000C82F882319F00E94AC0FC82F83E50E947E
:10493000090F882311F08C2F27DF10918205C111F8
:1049400003C0EEEBFDE01CC01111FBCFE4ECFDE079
:104950006491EF012196662331F086E59CE00E9488
:10496000E70DFE01F5CFEDE0F3E06491EF01219654
:10497000662339F386E59CE00E94E70DFE01F5CF42
:104980006491EF012196662331F086E59CE00E9458
:10499000E70DFE01F5CF111103C06FE971E002C010
:1049A0006BE971E08FEF92E00E9437676AE086E57D
:1049B0009CE0DF91CF911F910C94E70D0E94BE6F98
:1049C0000E94386F84E690E0B6DE0C94BB0F2F9205
:1049D0003F924F925F926F927F928F929F92AF928F
:1049E000BF92CF92DF92EF92FF920F931F93CF93DC
:1049F000DF93CDB7DEB76D970FB6F894DEBF0FBE6D
:104A0000CDBF9A8F898F7C8F6B8F342E2D8FFC01B9
:104A100080809180A280B38020E030E040EA51E4C1
:104A2000C501B4010E94D7936D8B7E8B8F8B988FBD
:104A3000EB8DFC8DC080D180E280F380C98ADA8A58
:104A4000EB8AFC8A40900D0350900E0360900F0398
:104A5000709010032091090330910A0340910B03D9
:104A600050910C03002349F00E94D7934B015C0145
:104A70002FE632E143E85AEB0AC0C501B4010E94B7
:104A8000D7934B015C0124EF3DEF4FE951E4C501A1
:104A9000B4010E94B49687FD25C025E733E34BE4BB
:104AA00053E4C501B4010E94B1941816DCF0A301CF
:104AB0009201C701B6010E94D7932B013C012FE65A
:104AC00032E143E85AEB0E94B49687FD0BC011E037
:104AD00025E733E34BE453E4C301B2010E94B194F0
:104AE00018160CF410E081E0812709F0B9C140905C
:104AF000230150902401609025017090260180913F
:104B0000A90281110EC089EA92E00E94EC91892BE2
:104B100041F080911E018093400289EA92E00E9458
:104B2000F591011102C010921E018091090190912E
:104B30000A01A0910B01B0910C0180932301909385
:104B40002401A0932501B093260119821A821B82A9
:104B50001C82AE014F5F5F4FBE016F5E7F4FCE0183
:104B600045960E943C1481E00E94C3148111E6C066
:104B70000E94FD0DC090DC02D090DD02E090DE02CC
:104B8000F090DF0220E030E0A901C701B6010E94E9
:104B9000B19487FF0BC0A701960160E070E080E24E
:104BA00091E40E94D7936B017C0106C0C12CD12CEB
:104BB00090E2E92E91E4F92E2091EB043091EC047F
:104BC0004091ED045091EE04C701B6010E94B194EA
:104BD00087FF3DC0C986DA86EB86FC86C12CD12CC6
:104BE00080E8E82E80E4F82EC982DA82EB82FC822B
:104BF000BE016F5F7F4FCE0109960E943514209051
:104C000000051092000582E090E095DD0E94BB0F48
:104C100022FE1DC0C982DA82EB82FC8220E030E0F5
:104C200040EA50E46091EB047091EC048091ED0453
:104C30009091EE040E94D8936D837E838F83988732
:104C4000BE016F5F7F4FCE0105960E9435140111A2
:104C500005C080E090E0A2E5B3EC04C080E090E005
:104C6000A0E2B1EC8D839E83AF83B88780E090E0B3
:104C7000A0E0B0E489839A83AB83BC83BE016F5FFD
:104C80007F4FCE0105960E943514009100051092C9
:104C9000000582E090E04FDD0E94BB0F02FF21C0C3
:104CA000209111033091120340911303509114038A
:104CB0006091EB047091EC048091ED049091EE040E
:104CC0000E94D7932091DC023091DD024091DE02F8
:104CD0005091DF020E94D893D62EE72E182F092F6D
:104CE00004C0D12CE12C10EC0FE7311022C080E081
:104CF00090E0A0E8B0E489839A83AB83BC8320E092
:104D000030E040EA50E46091EB047091EC04809153
:104D1000ED049091EE040E94D8936D877E878F8773
:104D2000988BBE016F5F7F4FCE010D960E943514A8
:104D300009C080E00E94C314882321F0D12CE12C0B
:104D400010EC0FE78091400280931E01FD8DF3303F
:104D500008F454C0EEEFF7E064911F018FEF281ABA
:104D6000380A662331F086E59CE00E94E70DF101E8
:104D7000F3CFE98DFA8D408151816281738123E007
:104D800030E086E59CE00E94E50DE9EFF7E06491F4
:104D90005F018FEFA81AB80A662331F086E59CE020
:104DA0000E94E70DF501F3CFEB8DFC8D4081518121
:104DB0006281738123E030E086E59CE00E94E50D8E
:104DC000E4EFF7E064915F018FEFA81AB80A662359
:104DD00031F086E59CE00E94E70DF501F3CF23E07A
:104DE00030E04D2D5E2D612F702F86E59CE00E94F6
:104DF000E50D6AE086E59CE00E94E70D4092230104
:104E00005092240160922501709226012D2D3E2D95
:104E1000412F502F6D2D7E2D812F902F0E949D9719
:104E2000882319F1E4ECFDE064915F018FEFA81A8B
:104E3000B80A662331F086E59CE00E94E70DF50193
:104E4000F3CFE4EEF7E064915F018FEFA81AB80AA0
:104E5000662359F086E59CE00E94E70DF501F3CF4B
:104E6000D12CE12C20EC0FE701C0212F6D2D7E2DE0
:104E7000822F902F6D960FB6F894DEBF0FBECDBF78
:104E8000DF91CF911F910F91FF90EF90DF90CF9026
:104E9000BF90AF909F908F907F906F905F904F905A
:104EA0003F902F9008954F925F926F927F928F92D2
:104EB0009F92AF92BF92CF92DF92EF92FF920F93A9
:104EC000CF93DF93CDB7DEB728970FB6F894DEBF48
:104ED0000FBECDBFC090E304D090E404E090E504A1
:104EE000F090E60488E50E94380F811109C020E0A7
:104EF00030E040EA51E4C701B6010E94D89302C0F5
:104F00000E94440F6D837E838F839887C090E7044F
:104F1000D090E804E090E904F090EA0489E50E946A
:104F2000380F811108C020E030E0A901C701B601A7
:104F30000E94D89302C00E94440F6B017C016983D8
:104F40007A838B839C8340900D0350900E03609076
:104F50000F03709010032091090330910A034091D0
:104F60000B0350910C036D817E818F8198850E9487
:104F7000D7934B015C0124EF3DEF4FE951E40E94D0
:104F8000B49687FD7DC025E733E34BE453E4C501C8
:104F9000B4010E94B19418160CF472C0A3019201DE
:104FA000C701B6010E94D7936B017C012FE632E165
:104FB00043E85AEB0E94B49687FD62C025E733E3CD
:104FC0004BE453E4C701B6010E94B19418160CF4E7
:104FD00057C080E0D9DB0E94110E83E50E94090FC3
:104FE000882309F44BC00E94AC0F01E021E0482F58
:104FF000BE016F5F7F4FCE010596E9DC6B017C013E
:105000009B01AC010E949D97811133C02CEA35ECC5
:1050100047E257E36D817E818F8198850E94D89306
:10502000AB01BC018CEB96E00E94BD672CEA35EC2D
:1050300047E257E369817A818B819C810E94D893F2
:10504000AB01BC0187EB96E00E94BD672CEA35EC12
:1050500047E257E3C701B6010E94D893AB01BC01F8
:1050600082EB96E00E94BD676AE086E59CE00E94C4
:10507000E70D0E94300E0E94F81A02C081E0B5CF01
:1050800028960FB6F894DEBF0FBECDBFDF91CF914B
:105090000F91FF90EF90DF90CF90BF90AF909F90D7
:1050A0008F907F906F905F904F9008952F923F92D6
:1050B0004F925F926F927F928F929F92AF92BF9228
:1050C000CF92DF92EF92FF920F931F93CF93DF93D4
:1050D000CDB7DEB7C558D1090FB6F894DEBF0FBE05
:1050E000CDBF41E061E081E00E9440148111ACC27B
:1050F000C12CD12C760100E010E024E333E440E041
:1051000050E068EC71E4CE0101960E94097F00E056
:1051100010E028EC31E4B901A801CE010D960E94FF
:10512000097F00E010E028EC31E440E050E064E367
:1051300073E4CE0149960E94097FF09082058AE4CB
:105140000E94090F882311F02FDB7EC286E50E94A2
:10515000380F882321F00E947B0F1B0102C0212CF5
:10516000312C25E02216310480F0E3E1F7E0649170
:105170007F013FEFE31AF30A662309F465C286E56F
:105180009CE00E94E70DF701F2CF84E40E94090F32
:10519000CF57DF4F8883C158D040882309F44BC2D2
:1051A0000E94AC0FCF57DF4F8883C158D0402114E5
:1051B000310429F1ECEFF6E064916F014FEFC41A6E
:1051C000D40A662331F086E59CE00E94E70DF601E3
:1051D000F3CFCF57DF4F5881C158D040552379F0D6
:1051E000E3EEF6E064916F018FEFC81AD80A6623E8
:1051F00031F086E59CE00E94E70DF601F3CF0E94B6
:10520000386F10928205CF57DF4F9881C158D04038
:1052100091110AC084E690E08EDA0E94BB0FCF574E
:10522000DF4F1882C158D04081E00E94C314882308
:1052300019F0F092820508C20E94110E19A21AA25A
:105240001BA21CA21D8A1E8A1F8A188E19861A8606
:105250001B861C8685E40E94090FE82E882319F01E
:105260000E94AC0FE82EDE0111966D015E01B5E2E1
:10527000AB0EB11C2091090330910A0340910B033E
:1052800050910C03F60160817181828193810E94AB
:10529000D8936D966CAF7DAF8EAF9FAF6D97209119
:1052A0000D0330910E0340910F0350911003D6016E
:1052B00014966D917D918D919C9117970E94D89332
:1052C00069966CAF7DAF8EAF9FAF699701E0222DDD
:1052D0004E2DBE016B5A7F4FCE01875A9F4F77DB11
:1052E0002B013C019B01AC010E949D97882319F082
:1052F000F0928205F0C0F601408651866286738680
:10530000FCE0CF0ED11CCA14DB0409F0B3CFCF5799
:10531000DF4FB881C158D040B111DDC0AD84BE842B
:10532000CF84D888E988FA880B891C892D893E8921
:105330004F89588DBE01675E7F4FCE01C1960E9496
:10534000E67FAD84BE84CF84D888E988FA880B894B
:105350001C892D893E894F89588DBE016F5F7F4F13
:10536000CE0185960E94E67F4DB75EB74C5051093D
:105370000FB6F8945EBF0FBE4DBFADB7BEB7119666
:105380008CE0FE01F19601900D928A95E1F7CDA097
:10539000DEA0EFA0F8A409A51AA52BA53CA54DA554
:1053A0005EA56FA578A9CE01CD960E94237FBE0190
:1053B000635C7F4FCE01875B9F4F0E94DE802D96FE
:1053C000CCACDDACEEACFFAC2D9761968CAD9DAD59
:1053D000AEADBFAD6197CE57DF4F88839983AA8367
:1053E000BB83C258D04065968CAC9DACAEACBFAC14
:1053F00065970FB6F894DEBF0FBECDBF20E030E05A
:10540000A901C501B4010E94B19487FF19C0F7FA40
:10541000F094F7F8F094CE57DF4F288139814A8114
:105420005B81C258D0405058CE57DF4F2883398314
:105430004A835B83C258D040B7FAB094B7F8B094AF
:105440002D96CCAEDDAEEEAEFFAE2D97CE57DF4F34
:105450000881C258D040CE57DF4F288139814A8118
:105460005B81C258D04061962CAF3DAF4EAF5FAF6D
:105470006197482D65968CAE9DAEAEAEBFAE65977A
:105480002B96DFAC2B972C96EFAC2C972D96FFAC80
:105490002D972F961FAD2F9760962FAD6097619631
:1054A0003FAD619763965FAD639764966FAD649708
:1054B00065967FAD6597CE01835A9F4F0E94828289
:1054C00084E2FE01E35AFF4FAEE5B5E001900D9294
:1054D0008A95E1F7F12C80E00E94C314882319F02B
:1054E000F092820597C0A3019201C301B2010E940C
:1054F0009D9781118FC0232831F064EC76E08EE512
:1055000095E00E944584CF57DF4F3881C158D04085
:1055100031117DC08CE0E3EEF4E0DE01DD96019018
:105520000D928A95E1F781E080938205CE01CD96B8
:105530000E94FD5820E030E040EA51E46D966CADE9
:105540007DAD8EAD9FAD6D970E94D7939B01AC0151
:105550006091E3047091E4048091E5049091E60485
:105560000E94D7936B017C012DEB37E346E855EBA6
:105570000E94B49687FD40C02DEB37E346E855E323
:10558000C701B6010E94B1941816B4F169962CAD0A
:105590003DAD4EAD5FAD69976091E7047091E80451
:1055A0008091E9049091EA040E94D7936B017C01F9
:1055B0002DEB37E346E855EB0E94B49687FD1CC0FF
:1055C0002DEB37E346E855E3C701B6010E94B194DD
:1055D000181694F0A30192016091EB047091EC0411
:1055E0008091ED049091EE040E94D79329966CAFC0
:1055F0007DAF8EAF9FAF29978CE0FE01FD96A3EEA5
:10560000B4E001900D928A95E1F781E001C08F2D01
:10561000809382050E94300E0E94F81A81E090E08B
:105620009093CB028093CA0280918205882361F017
:105630000E94BB0F09C02114310409F0BBCD0E94A8
:10564000386F10928205E6CDCB57DF4F0FB6F89436
:10565000DEBF0FBECDBFDF91CF911F910F91FF90A5
:10566000EF90DF90CF90BF90AF909F908F907F9002
:105670006F905F904F903F902F900895CF92DF9260
:10568000EF92FF92CF93DF9383ED94E00E94E522A7
:105690000E94FD0D8091F30483FD93C0C090DF0450
:1056A000D090E004E090E104F090E2042091EF0457
:1056B0003091F0044091F1045091F204C701B60119
:1056C0000E94B194882309F47CC08091620B8111FF
:1056D0003AC06091470170914801072E000C880B79
:1056E000990B0E9453959B01AC016091870B7091BF
:1056F000880B8091890B90918A0B0E94B19487FF4F
:1057000022C0C092EF04D092F004E092F104F09233
:10571000F204EEEBFDE06491EF012196662331F097
:1057200086E59CE00E94E70DFE01F5CFE7E8F2E098
:105730006491EF012196662331F086E59CE00E949A
:10574000E70DFE01F5CFC090DF04D090E004E090BB
:10575000E104F090E2042091EF043091F0044091D4
:10576000F1045091F204C701B6010E94D79320E0E2
:1057700030E048E453E40E94B496181614F5C09241
:10578000EF04D092F004E092F104F092F204EEEB18
:10579000FDE06491EF012196662331F086E59CE0FF
:1057A0000E94E70DFE01F5CFE8E6F2E06491EF011B
:1057B0002196662331F086E59CE00E94E70DFE010C
:1057C000F5CF2091D3043091D4044091D504509169
:1057D000D6046091E3047091E4048091E504909113
:1057E000E6040E94B19481111DC02091D70430912C
:1057F000D8044091D9045091DA046091E704709183
:10580000E8048091E9049091EA040E94B194811126
:1058100009C060912301709124018091250190912C
:1058200026011AC06091210170912201072E000CFF
:10583000880B990B0E9453952091230130912401EC
:1058400040912501509126010E94EF962AE037ED04
:1058500043E25CE30E94EF960E94EE12DF91CF914B
:10586000FF90EF90DF90CF900C944913CF92DF928E
:10587000EF92FF9220913503222321F16B017C01ED
:1058800020E030E0A9010E94B1948823D9F020E003
:1058900030E040E05FE3C701B6010E94EF969B0154
:1058A000AC010E94EF962BED3FE049E450E40E94EA
:1058B000EF969B01AC0160E070E080E89FE30E94FE
:1058C000B89404C060E070E080E89FE3FF90EF9040
:1058D000DF90CF90089560913103709132038091F1
:1058E000330390913403C2DF60932D0370932E0332
:1058F00080932F03909330030895CF93DF9388EC28
:1059000090E00E94FA11811141C084E40E94090FC5
:105910008823C9F10E94440FC1E020E030E0A901D2
:105920000E94B194811101C0C0E0C0933503CC2323
:1059300051F1C091E002D0E00E94440FCC0FDD1F76
:10594000CC0FDD1FCF5CDC4F688379838A839B8318
:1059500020E030E0A9016091310370913203809121
:105960003303909134030E94B19481110CC080E004
:1059700090E0A0EEBFE38093310390933203A093B5
:105980003303B0933403DF91CF91A5CFDF91CF9153
:10599000089577987698479843980895439A08957C
:1059A00083E50E94380F882399F00E94440F20E07D
:1059B00030E04AE754E40E94EF960E9425956093F8
:1059C0000D0170930E0180930F01909310010895C3
:1059D00088E50E94090F811111C089E50E94090F15
:1059E00081110CC08AE50E94090F811107C085E46E
:1059F0000E94090F811102C00C94BB6F0E94386F86
:105A000088E50E94090F882319F0779A1092CD0437
:105A100089E50E94090F882319F0769A1092CE0426
:105A20008AE50E94090F882319F0479A1092CF0443
:105A300085E40E94090F8111B1CF0895779AEDECAA
:105A4000F4E01082769A1182479A1282A7CFE4EC92
:105A5000FDE06491EF012196662331F086E59CE03C
:105A60000E94E70DFE01F5CFE5E0F2E06491EF0161
:105A70002196662331F086E59CE00E94E70DFE0149
:105A8000F5CF0E94C376DADF2FEF8BE49DE1215042
:105A900080409040E1F700C00000F8942FEF84E3CD
:105AA0009CE0215080409040E1F700C000000E943F
:105AB000C376A895FECF0F931F93CF93DF9340E952
:105AC00050ED63E070E086E59CE00E945C93EEEFB1
:105AD000F1E06491EF012196662331F086E59CE0C8
